{
  "_format": "hh-sol-artifact-1",
  "contractName": "EstateTokenFactory",
  "sourceName": "contracts/EstateTokenFactory.sol",
  "abi": [
    {
      "anonymous": false,
      "inputs": [
        {
          "indexed": true,
          "internalType": "contract EstateToken",
          "name": "estateTokenAddress",
          "type": "address"
        }
      ],
      "name": "EstateTokenCreated",
      "type": "event"
    },
    {
      "anonymous": false,
      "inputs": [
        {
          "indexed": true,
          "internalType": "address",
          "name": "previousOwner",
          "type": "address"
        },
        {
          "indexed": true,
          "internalType": "address",
          "name": "newOwner",
          "type": "address"
        }
      ],
      "name": "OwnershipTransferred",
      "type": "event"
    },
    {
      "inputs": [],
      "name": "createEstateToken",
      "outputs": [],
      "stateMutability": "nonpayable",
      "type": "function"
    },
    {
      "inputs": [
        {
          "internalType": "uint256",
          "name": "",
          "type": "uint256"
        }
      ],
      "name": "estateTokens",
      "outputs": [
        {
          "internalType": "contract EstateToken",
          "name": "",
          "type": "address"
        }
      ],
      "stateMutability": "view",
      "type": "function"
    },
    {
      "inputs": [],
      "name": "getDeployedEstateTokens",
      "outputs": [
        {
          "internalType": "contract EstateToken[]",
          "name": "",
          "type": "address[]"
        }
      ],
      "stateMutability": "view",
      "type": "function"
    },
    {
      "inputs": [],
      "name": "owner",
      "outputs": [
        {
          "internalType": "address",
          "name": "",
          "type": "address"
        }
      ],
      "stateMutability": "view",
      "type": "function"
    },
    {
      "inputs": [],
      "name": "renounceOwnership",
      "outputs": [],
      "stateMutability": "nonpayable",
      "type": "function"
    },
    {
      "inputs": [
        {
          "internalType": "address",
          "name": "newOwner",
          "type": "address"
        }
      ],
      "name": "transferOwnership",
      "outputs": [],
      "stateMutability": "nonpayable",
      "type": "function"
    }
  ],
  "bytecode": "0x608060405234801561001057600080fd5b5061002d61002261003260201b60201c565b61003a60201b60201c565b6100fe565b600033905090565b60008060009054906101000a900473ffffffffffffffffffffffffffffffffffffffff169050816000806101000a81548173ffffffffffffffffffffffffffffffffffffffff021916908373ffffffffffffffffffffffffffffffffffffffff1602179055508173ffffffffffffffffffffffffffffffffffffffff168173ffffffffffffffffffffffffffffffffffffffff167f8be0079c531659141344cd1fd0a4f28419497f9722a3daafe3b4186f6b6457e060405160405180910390a35050565b6138c78061010d6000396000f3fe60806040523480156200001157600080fd5b50600436106200006a5760003560e01c806306706cd4146200006f5780633385519e146200007b57806342d6d35e146200009d578063715018a614620000d35780638da5cb5b14620000df578063f2fde38b1462000101575b600080fd5b6200007962000121565b005b6200008562000204565b604051620000949190620006a7565b60405180910390f35b620000bb6004803603810190620000b5919062000559565b62000294565b604051620000ca9190620006cb565b60405180910390f35b620000dd620002d4565b005b620000e9620002ec565b604051620000f891906200068a565b60405180910390f35b6200011f60048036038101906200011991906200052d565b62000315565b005b6200012b620003a0565b60006040516200013b90620004f1565b604051809103906000f08015801562000158573d6000803e3d6000fd5b5090506001819080600181540180825580915050600190039060005260206000200160009091909190916101000a81548173ffffffffffffffffffffffffffffffffffffffff021916908373ffffffffffffffffffffffffffffffffffffffff1602179055508073ffffffffffffffffffffffffffffffffffffffff167f44820576e7a0c858397cf84adc16d68399f366c92c57b251962ab28309db797260405160405180910390a250565b606060018054806020026020016040519081016040528092919081815260200182805480156200028a57602002820191906000526020600020905b8160009054906101000a900473ffffffffffffffffffffffffffffffffffffffff1673ffffffffffffffffffffffffffffffffffffffff16815260200190600101908083116200023f575b5050505050905090565b60018181548110620002a557600080fd5b906000526020600020016000915054906101000a900473ffffffffffffffffffffffffffffffffffffffff1681565b620002de620003a0565b620002ea600062000425565b565b60008060009054906101000a900473ffffffffffffffffffffffffffffffffffffffff16905090565b6200031f620003a0565b600073ffffffffffffffffffffffffffffffffffffffff168173ffffffffffffffffffffffffffffffffffffffff16141562000392576040517f08c379a00000000000000000000000000000000000000000000000000000000081526004016200038990620006e8565b60405180910390fd5b6200039d8162000425565b50565b620003aa620004e9565b73ffffffffffffffffffffffffffffffffffffffff16620003ca620002ec565b73ffffffffffffffffffffffffffffffffffffffff161462000423576040517f08c379a00000000000000000000000000000000000000000000000000000000081526004016200041a906200070a565b60405180910390fd5b565b60008060009054906101000a900473ffffffffffffffffffffffffffffffffffffffff169050816000806101000a81548173ffffffffffffffffffffffffffffffffffffffff021916908373ffffffffffffffffffffffffffffffffffffffff1602179055508173ffffffffffffffffffffffffffffffffffffffff168173ffffffffffffffffffffffffffffffffffffffff167f8be0079c531659141344cd1fd0a4f28419497f9722a3daafe3b4186f6b6457e060405160405180910390a35050565b600033905090565b613009806200088983390190565b600081359050620005108162000854565b92915050565b60008135905062000527816200086e565b92915050565b6000602082840312156200054057600080fd5b60006200055084828501620004ff565b91505092915050565b6000602082840312156200056c57600080fd5b60006200057c8482850162000516565b91505092915050565b60006200059383836200061a565b60208301905092915050565b620005aa8162000776565b82525050565b6000620005bd826200073c565b620005c9818562000754565b9350620005d6836200072c565b8060005b838110156200060d578151620005f1888262000585565b9750620005fe8362000747565b925050600181019050620005da565b5085935050505092915050565b6200062581620007b4565b82525050565b6200063681620007b4565b82525050565b60006200064b60268362000765565b91506200065882620007dc565b604082019050919050565b60006200067260208362000765565b91506200067f826200082b565b602082019050919050565b6000602082019050620006a160008301846200059f565b92915050565b60006020820190508181036000830152620006c38184620005b0565b905092915050565b6000602082019050620006e260008301846200062b565b92915050565b6000602082019050818103600083015262000703816200063c565b9050919050565b60006020820190508181036000830152620007258162000663565b9050919050565b6000819050602082019050919050565b600081519050919050565b6000602082019050919050565b600082825260208201905092915050565b600082825260208201905092915050565b600062000783826200078a565b9050919050565b600073ffffffffffffffffffffffffffffffffffffffff82169050919050565b6000819050919050565b6000620007c182620007c8565b9050919050565b6000620007d5826200078a565b9050919050565b7f4f776e61626c653a206e6577206f776e657220697320746865207a65726f206160008201527f6464726573730000000000000000000000000000000000000000000000000000602082015250565b7f4f776e61626c653a2063616c6c6572206973206e6f7420746865206f776e6572600082015250565b6200085f8162000776565b81146200086b57600080fd5b50565b6200087981620007aa565b81146200088557600080fd5b5056fe60806040523480156200001157600080fd5b506040518060400160405280600b81526020017f457374617465546f6b656e0000000000000000000000000000000000000000008152506040518060400160405280600381526020017f4553540000000000000000000000000000000000000000000000000000000000815250816000908051906020019062000096929190620001a6565b508060019080519060200190620000af929190620001a6565b505050620000d2620000c6620000d860201b60201c565b620000e060201b60201c565b620002bb565b600033905090565b6000600760009054906101000a900473ffffffffffffffffffffffffffffffffffffffff16905081600760006101000a81548173ffffffffffffffffffffffffffffffffffffffff021916908373ffffffffffffffffffffffffffffffffffffffff1602179055508173ffffffffffffffffffffffffffffffffffffffff168173ffffffffffffffffffffffffffffffffffffffff167f8be0079c531659141344cd1fd0a4f28419497f9722a3daafe3b4186f6b6457e060405160405180910390a35050565b828054620001b49062000256565b90600052602060002090601f016020900481019282620001d8576000855562000224565b82601f10620001f357805160ff191683800117855562000224565b8280016001018555821562000224579182015b828111156200022357825182559160200191906001019062000206565b5b50905062000233919062000237565b5090565b5b808211156200025257600081600090555060010162000238565b5090565b600060028204905060018216806200026f57607f821691505b602082108114156200028657620002856200028c565b5b50919050565b7f4e487b7100000000000000000000000000000000000000000000000000000000600052602260045260246000fd5b612d3e80620002cb6000396000f3fe608060405234801561001057600080fd5b50600436106101165760003560e01c8063715018a6116100a2578063b88d4fde11610071578063b88d4fde146102cd578063c87b56dd146102e9578063d0def52114610319578063e985e9c514610335578063f2fde38b1461036557610116565b8063715018a61461026b5780638da5cb5b1461027557806395d89b4114610293578063a22cb465146102b157610116565b806318160ddd116100e957806318160ddd146101b557806323b872dd146101d357806342842e0e146101ef5780636352211e1461020b57806370a082311461023b57610116565b806301ffc9a71461011b57806306fdde031461014b578063081812fc14610169578063095ea7b314610199575b600080fd5b610135600480360381019061013091906120c5565b610381565b60405161014291906124ae565b60405180910390f35b610153610463565b60405161016091906124c9565b60405180910390f35b610183600480360381019061017e9190612117565b6104f5565b604051610190919061241e565b60405180910390f35b6101b360048036038101906101ae9190612089565b61053b565b005b6101bd610653565b6040516101ca91906126ab565b60405180910390f35b6101ed60048036038101906101e89190611f2f565b610664565b005b61020960048036038101906102049190611f2f565b6106c4565b005b61022560048036038101906102209190612117565b6106e4565b604051610232919061241e565b60405180910390f35b61025560048036038101906102509190611eca565b61076b565b60405161026291906126ab565b60405180910390f35b610273610823565b005b61027d610837565b60405161028a919061241e565b60405180910390f35b61029b610861565b6040516102a891906124c9565b60405180910390f35b6102cb60048036038101906102c69190611ff9565b6108f3565b005b6102e760048036038101906102e29190611f7e565b610909565b005b61030360048036038101906102fe9190612117565b61096b565b60405161031091906124c9565b60405180910390f35b610333600480360381019061032e9190612035565b610a7e565b005b61034f600480360381019061034a9190611ef3565b610af0565b60405161035c91906124ae565b60405180910390f35b61037f600480360381019061037a9190611eca565b610b84565b005b60007f80ac58cd000000000000000000000000000000000000000000000000000000007bffffffffffffffffffffffffffffffffffffffffffffffffffffffff1916827bffffffffffffffffffffffffffffffffffffffffffffffffffffffff1916148061044c57507f5b5e139f000000000000000000000000000000000000000000000000000000007bffffffffffffffffffffffffffffffffffffffffffffffffffffffff1916827bffffffffffffffffffffffffffffffffffffffffffffffffffffffff1916145b8061045c575061045b82610c08565b5b9050919050565b60606000805461047290612846565b80601f016020809104026020016040519081016040528092919081815260200182805461049e90612846565b80156104eb5780601f106104c0576101008083540402835291602001916104eb565b820191906000526020600020905b8154815290600101906020018083116104ce57829003601f168201915b5050505050905090565b600061050082610c72565b6004600083815260200190815260200160002060009054906101000a900473ffffffffffffffffffffffffffffffffffffffff169050919050565b6000610546826106e4565b90508073ffffffffffffffffffffffffffffffffffffffff168373ffffffffffffffffffffffffffffffffffffffff1614156105b7576040517f08c379a00000000000000000000000000000000000000000000000000000000081526004016105ae9061266b565b60405180910390fd5b8073ffffffffffffffffffffffffffffffffffffffff166105d6610cbd565b73ffffffffffffffffffffffffffffffffffffffff1614806106055750610604816105ff610cbd565b610af0565b5b610644576040517f08c379a000000000000000000000000000000000000000000000000000000000815260040161063b9061268b565b60405180910390fd5b61064e8383610cc5565b505050565b600061065f6008610d7e565b905090565b61067561066f610cbd565b82610d8c565b6106b4576040517f08c379a00000000000000000000000000000000000000000000000000000000081526004016106ab906124eb565b60405180910390fd5b6106bf838383610e21565b505050565b6106df83838360405180602001604052806000815250610909565b505050565b6000806106f08361111b565b9050600073ffffffffffffffffffffffffffffffffffffffff168173ffffffffffffffffffffffffffffffffffffffff161415610762576040517f08c379a00000000000000000000000000000000000000000000000000000000081526004016107599061264b565b60405180910390fd5b80915050919050565b60008073ffffffffffffffffffffffffffffffffffffffff168273ffffffffffffffffffffffffffffffffffffffff1614156107dc576040517f08c379a00000000000000000000000000000000000000000000000000000000081526004016107d3906125cb565b60405180910390fd5b600360008373ffffffffffffffffffffffffffffffffffffffff1673ffffffffffffffffffffffffffffffffffffffff168152602001908152602001600020549050919050565b61082b611158565b61083560006111d6565b565b6000600760009054906101000a900473ffffffffffffffffffffffffffffffffffffffff16905090565b60606001805461087090612846565b80601f016020809104026020016040519081016040528092919081815260200182805461089c90612846565b80156108e95780601f106108be576101008083540402835291602001916108e9565b820191906000526020600020905b8154815290600101906020018083116108cc57829003601f168201915b5050505050905090565b6109056108fe610cbd565b838361129c565b5050565b61091a610914610cbd565b83610d8c565b610959576040517f08c379a0000000000000000000000000000000000000000000000000000000008152600401610950906124eb565b60405180910390fd5b61096584848484611409565b50505050565b606061097682610c72565b600060066000848152602001908152602001600020805461099690612846565b80601f01602080910402602001604051908101604052809291908181526020018280546109c290612846565b8015610a0f5780601f106109e457610100808354040283529160200191610a0f565b820191906000526020600020905b8154815290600101906020018083116109f257829003601f168201915b505050505090506000610a20611465565b9050600081511415610a36578192505050610a79565b600082511115610a6b578082604051602001610a539291906123fa565b60405160208183030381529060405292505050610a79565b610a748461147c565b925050505b919050565b610a86611158565b610a9060086114e4565b6000610a9c6008610d7e565b9050610aa883826114fa565b610ab28183611718565b7fb9144c96c86541f6fa89c9f2f02495cccf4b08cd6643e26d34ee00aa586558a88382604051610ae3929190612485565b60405180910390a1505050565b6000600560008473ffffffffffffffffffffffffffffffffffffffff1673ffffffffffffffffffffffffffffffffffffffff16815260200190815260200160002060008373ffffffffffffffffffffffffffffffffffffffff1673ffffffffffffffffffffffffffffffffffffffff16815260200190815260200160002060009054906101000a900460ff16905092915050565b610b8c611158565b600073ffffffffffffffffffffffffffffffffffffffff168173ffffffffffffffffffffffffffffffffffffffff161415610bfc576040517f08c379a0000000000000000000000000000000000000000000000000000000008152600401610bf39061252b565b60405180910390fd5b610c05816111d6565b50565b60007f01ffc9a7000000000000000000000000000000000000000000000000000000007bffffffffffffffffffffffffffffffffffffffffffffffffffffffff1916827bffffffffffffffffffffffffffffffffffffffffffffffffffffffff1916149050919050565b610c7b8161178c565b610cba576040517f08c379a0000000000000000000000000000000000000000000000000000000008152600401610cb19061264b565b60405180910390fd5b50565b600033905090565b816004600083815260200190815260200160002060006101000a81548173ffffffffffffffffffffffffffffffffffffffff021916908373ffffffffffffffffffffffffffffffffffffffff160217905550808273ffffffffffffffffffffffffffffffffffffffff16610d38836106e4565b73ffffffffffffffffffffffffffffffffffffffff167f8c5be1e5ebec7d5bd14f71427d1e84f3dd0314c0f7b2291e5b200ac8c7c3b92560405160405180910390a45050565b600081600001549050919050565b600080610d98836106e4565b90508073ffffffffffffffffffffffffffffffffffffffff168473ffffffffffffffffffffffffffffffffffffffff161480610dda5750610dd98185610af0565b5b80610e1857508373ffffffffffffffffffffffffffffffffffffffff16610e00846104f5565b73ffffffffffffffffffffffffffffffffffffffff16145b91505092915050565b8273ffffffffffffffffffffffffffffffffffffffff16610e41826106e4565b73ffffffffffffffffffffffffffffffffffffffff1614610e97576040517f08c379a0000000000000000000000000000000000000000000000000000000008152600401610e8e9061254b565b60405180910390fd5b600073ffffffffffffffffffffffffffffffffffffffff168273ffffffffffffffffffffffffffffffffffffffff161415610f07576040517f08c379a0000000000000000000000000000000000000000000000000000000008152600401610efe9061258b565b60405180910390fd5b610f1483838360016117cd565b8273ffffffffffffffffffffffffffffffffffffffff16610f34826106e4565b73ffffffffffffffffffffffffffffffffffffffff1614610f8a576040517f08c379a0000000000000000000000000000000000000000000000000000000008152600401610f819061254b565b60405180910390fd5b6004600082815260200190815260200160002060006101000a81549073ffffffffffffffffffffffffffffffffffffffff02191690556001600360008573ffffffffffffffffffffffffffffffffffffffff1673ffffffffffffffffffffffffffffffffffffffff168152602001908152602001600020600082825403925050819055506001600360008473ffffffffffffffffffffffffffffffffffffffff1673ffffffffffffffffffffffffffffffffffffffff16815260200190815260200160002060008282540192505081905550816002600083815260200190815260200160002060006101000a81548173ffffffffffffffffffffffffffffffffffffffff021916908373ffffffffffffffffffffffffffffffffffffffff160217905550808273ffffffffffffffffffffffffffffffffffffffff168473ffffffffffffffffffffffffffffffffffffffff167fddf252ad1be2c89b69c2b068fc378daa952ba7f163c4a11628f55a4df523b3ef60405160405180910390a461111683838360016117d3565b505050565b60006002600083815260200190815260200160002060009054906101000a900473ffffffffffffffffffffffffffffffffffffffff169050919050565b611160610cbd565b73ffffffffffffffffffffffffffffffffffffffff1661117e610837565b73ffffffffffffffffffffffffffffffffffffffff16146111d4576040517f08c379a00000000000000000000000000000000000000000000000000000000081526004016111cb9061262b565b60405180910390fd5b565b6000600760009054906101000a900473ffffffffffffffffffffffffffffffffffffffff16905081600760006101000a81548173ffffffffffffffffffffffffffffffffffffffff021916908373ffffffffffffffffffffffffffffffffffffffff1602179055508173ffffffffffffffffffffffffffffffffffffffff168173ffffffffffffffffffffffffffffffffffffffff167f8be0079c531659141344cd1fd0a4f28419497f9722a3daafe3b4186f6b6457e060405160405180910390a35050565b8173ffffffffffffffffffffffffffffffffffffffff168373ffffffffffffffffffffffffffffffffffffffff16141561130b576040517f08c379a0000000000000000000000000000000000000000000000000000000008152600401611302906125ab565b60405180910390fd5b80600560008573ffffffffffffffffffffffffffffffffffffffff1673ffffffffffffffffffffffffffffffffffffffff16815260200190815260200160002060008473ffffffffffffffffffffffffffffffffffffffff1673ffffffffffffffffffffffffffffffffffffffff16815260200190815260200160002060006101000a81548160ff0219169083151502179055508173ffffffffffffffffffffffffffffffffffffffff168373ffffffffffffffffffffffffffffffffffffffff167f17307eab39ab6107e8899845ad3d59bd9653f200f220920489ca2b5937696c31836040516113fc91906124ae565b60405180910390a3505050565b611414848484610e21565b611420848484846117d9565b61145f576040517f08c379a00000000000000000000000000000000000000000000000000000000081526004016114569061250b565b60405180910390fd5b50505050565b606060405180602001604052806000815250905090565b606061148782610c72565b6000611491611465565b905060008151116114b157604051806020016040528060008152506114dc565b806114bb84611970565b6040516020016114cc9291906123fa565b6040516020818303038152906040525b915050919050565b6001816000016000828254019250508190555050565b600073ffffffffffffffffffffffffffffffffffffffff168273ffffffffffffffffffffffffffffffffffffffff16141561156a576040517f08c379a00000000000000000000000000000000000000000000000000000000081526004016115619061260b565b60405180910390fd5b6115738161178c565b156115b3576040517f08c379a00000000000000000000000000000000000000000000000000000000081526004016115aa9061256b565b60405180910390fd5b6115c16000838360016117cd565b6115ca8161178c565b1561160a576040517f08c379a00000000000000000000000000000000000000000000000000000000081526004016116019061256b565b60405180910390fd5b6001600360008473ffffffffffffffffffffffffffffffffffffffff1673ffffffffffffffffffffffffffffffffffffffff16815260200190815260200160002060008282540192505081905550816002600083815260200190815260200160002060006101000a81548173ffffffffffffffffffffffffffffffffffffffff021916908373ffffffffffffffffffffffffffffffffffffffff160217905550808273ffffffffffffffffffffffffffffffffffffffff16600073ffffffffffffffffffffffffffffffffffffffff167fddf252ad1be2c89b69c2b068fc378daa952ba7f163c4a11628f55a4df523b3ef60405160405180910390a46117146000838360016117d3565b5050565b6117218261178c565b611760576040517f08c379a0000000000000000000000000000000000000000000000000000000008152600401611757906125eb565b60405180910390fd5b80600660008481526020019081526020016000209080519060200190611787929190611cee565b505050565b60008073ffffffffffffffffffffffffffffffffffffffff166117ae8361111b565b73ffffffffffffffffffffffffffffffffffffffff1614159050919050565b50505050565b50505050565b60006117fa8473ffffffffffffffffffffffffffffffffffffffff16611a94565b15611963578373ffffffffffffffffffffffffffffffffffffffff1663150b7a02611823610cbd565b8786866040518563ffffffff1660e01b81526004016118459493929190612439565b602060405180830381600087803b15801561185f57600080fd5b505af192505050801561189057506040513d601f19601f8201168201806040525081019061188d91906120ee565b60015b611913573d80600081146118c0576040519150601f19603f3d011682016040523d82523d6000602084013e6118c5565b606091505b5060008151141561190b576040517f08c379a00000000000000000000000000000000000000000000000000000000081526004016119029061250b565b60405180910390fd5b805181602001fd5b63150b7a0260e01b7bffffffffffffffffffffffffffffffffffffffffffffffffffffffff1916817bffffffffffffffffffffffffffffffffffffffffffffffffffffffff191614915050611968565b600190505b949350505050565b60606000600161197f84611ab7565b01905060008167ffffffffffffffff8111156119c4577f4e487b7100000000000000000000000000000000000000000000000000000000600052604160045260246000fd5b6040519080825280601f01601f1916602001820160405280156119f65781602001600182028036833780820191505090505b509050600082602001820190505b600115611a89578080600190039150507f3031323334353637383961626364656600000000000000000000000000000000600a86061a8153600a8581611a73577f4e487b7100000000000000000000000000000000000000000000000000000000600052601260045260246000fd5b0494506000851415611a8457611a89565b611a04565b819350505050919050565b6000808273ffffffffffffffffffffffffffffffffffffffff163b119050919050565b600080600090507a184f03e93ff9f4daa797ed6e38ed64bf6a1f0100000000000000008310611b3b577a184f03e93ff9f4daa797ed6e38ed64bf6a1f0100000000000000008381611b31577f4e487b7100000000000000000000000000000000000000000000000000000000600052601260045260246000fd5b0492506040810190505b6d04ee2d6d415b85acef81000000008310611b9e576d04ee2d6d415b85acef81000000008381611b94577f4e487b7100000000000000000000000000000000000000000000000000000000600052601260045260246000fd5b0492506020810190505b662386f26fc100008310611bf357662386f26fc100008381611be9577f4e487b7100000000000000000000000000000000000000000000000000000000600052601260045260246000fd5b0492506010810190505b6305f5e1008310611c42576305f5e1008381611c38577f4e487b7100000000000000000000000000000000000000000000000000000000600052601260045260246000fd5b0492506008810190505b6127108310611c8d576127108381611c83577f4e487b7100000000000000000000000000000000000000000000000000000000600052601260045260246000fd5b0492506004810190505b60648310611cd65760648381611ccc577f4e487b7100000000000000000000000000000000000000000000000000000000600052601260045260246000fd5b0492506002810190505b600a8310611ce5576001810190505b80915050919050565b828054611cfa90612846565b90600052602060002090601f016020900481019282611d1c5760008555611d63565b82601f10611d3557805160ff1916838001178555611d63565b82800160010185558215611d63579182015b82811115611d62578251825591602001919060010190611d47565b5b509050611d709190611d74565b5090565b5b80821115611d8d576000816000905550600101611d75565b5090565b6000611da4611d9f846126eb565b6126c6565b905082815260208101848484011115611dbc57600080fd5b611dc7848285612804565b509392505050565b6000611de2611ddd8461271c565b6126c6565b905082815260208101848484011115611dfa57600080fd5b611e05848285612804565b509392505050565b600081359050611e1c81612cac565b92915050565b600081359050611e3181612cc3565b92915050565b600081359050611e4681612cda565b92915050565b600081519050611e5b81612cda565b92915050565b600082601f830112611e7257600080fd5b8135611e82848260208601611d91565b91505092915050565b600082601f830112611e9c57600080fd5b8135611eac848260208601611dcf565b91505092915050565b600081359050611ec481612cf1565b92915050565b600060208284031215611edc57600080fd5b6000611eea84828501611e0d565b91505092915050565b60008060408385031215611f0657600080fd5b6000611f1485828601611e0d565b9250506020611f2585828601611e0d565b9150509250929050565b600080600060608486031215611f4457600080fd5b6000611f5286828701611e0d565b9350506020611f6386828701611e0d565b9250506040611f7486828701611eb5565b9150509250925092565b60008060008060808587031215611f9457600080fd5b6000611fa287828801611e0d565b9450506020611fb387828801611e0d565b9350506040611fc487828801611eb5565b925050606085013567ffffffffffffffff811115611fe157600080fd5b611fed87828801611e61565b91505092959194509250565b6000806040838503121561200c57600080fd5b600061201a85828601611e0d565b925050602061202b85828601611e22565b9150509250929050565b6000806040838503121561204857600080fd5b600061205685828601611e0d565b925050602083013567ffffffffffffffff81111561207357600080fd5b61207f85828601611e8b565b9150509250929050565b6000806040838503121561209c57600080fd5b60006120aa85828601611e0d565b92505060206120bb85828601611eb5565b9150509250929050565b6000602082840312156120d757600080fd5b60006120e584828501611e37565b91505092915050565b60006020828403121561210057600080fd5b600061210e84828501611e4c565b91505092915050565b60006020828403121561212957600080fd5b600061213784828501611eb5565b91505092915050565b61214981612790565b82525050565b612158816127a2565b82525050565b60006121698261274d565b6121738185612763565b9350612183818560208601612813565b61218c81612907565b840191505092915050565b60006121a282612758565b6121ac8185612774565b93506121bc818560208601612813565b6121c581612907565b840191505092915050565b60006121db82612758565b6121e58185612785565b93506121f5818560208601612813565b80840191505092915050565b600061220e602d83612774565b915061221982612918565b604082019050919050565b6000612231603283612774565b915061223c82612967565b604082019050919050565b6000612254602683612774565b915061225f826129b6565b604082019050919050565b6000612277602583612774565b915061228282612a05565b604082019050919050565b600061229a601c83612774565b91506122a582612a54565b602082019050919050565b60006122bd602483612774565b91506122c882612a7d565b604082019050919050565b60006122e0601983612774565b91506122eb82612acc565b602082019050919050565b6000612303602983612774565b915061230e82612af5565b604082019050919050565b6000612326602e83612774565b915061233182612b44565b604082019050919050565b6000612349602083612774565b915061235482612b93565b602082019050919050565b600061236c602083612774565b915061237782612bbc565b602082019050919050565b600061238f601883612774565b915061239a82612be5565b602082019050919050565b60006123b2602183612774565b91506123bd82612c0e565b604082019050919050565b60006123d5603d83612774565b91506123e082612c5d565b604082019050919050565b6123f4816127fa565b82525050565b600061240682856121d0565b915061241282846121d0565b91508190509392505050565b60006020820190506124336000830184612140565b92915050565b600060808201905061244e6000830187612140565b61245b6020830186612140565b61246860408301856123eb565b818103606083015261247a818461215e565b905095945050505050565b600060408201905061249a6000830185612140565b6124a760208301846123eb565b9392505050565b60006020820190506124c3600083018461214f565b92915050565b600060208201905081810360008301526124e38184612197565b905092915050565b6000602082019050818103600083015261250481612201565b9050919050565b6000602082019050818103600083015261252481612224565b9050919050565b6000602082019050818103600083015261254481612247565b9050919050565b600060208201905081810360008301526125648161226a565b9050919050565b600060208201905081810360008301526125848161228d565b9050919050565b600060208201905081810360008301526125a4816122b0565b9050919050565b600060208201905081810360008301526125c4816122d3565b9050919050565b600060208201905081810360008301526125e4816122f6565b9050919050565b6000602082019050818103600083015261260481612319565b9050919050565b600060208201905081810360008301526126248161233c565b9050919050565b600060208201905081810360008301526126448161235f565b9050919050565b6000602082019050818103600083015261266481612382565b9050919050565b60006020820190508181036000830152612684816123a5565b9050919050565b600060208201905081810360008301526126a4816123c8565b9050919050565b60006020820190506126c060008301846123eb565b92915050565b60006126d06126e1565b90506126dc8282612878565b919050565b6000604051905090565b600067ffffffffffffffff821115612706576127056128d8565b5b61270f82612907565b9050602081019050919050565b600067ffffffffffffffff821115612737576127366128d8565b5b61274082612907565b9050602081019050919050565b600081519050919050565b600081519050919050565b600082825260208201905092915050565b600082825260208201905092915050565b600081905092915050565b600061279b826127da565b9050919050565b60008115159050919050565b60007fffffffff0000000000000000000000000000000000000000000000000000000082169050919050565b600073ffffffffffffffffffffffffffffffffffffffff82169050919050565b6000819050919050565b82818337600083830152505050565b60005b83811015612831578082015181840152602081019050612816565b83811115612840576000848401525b50505050565b6000600282049050600182168061285e57607f821691505b60208210811415612872576128716128a9565b5b50919050565b61288182612907565b810181811067ffffffffffffffff821117156128a05761289f6128d8565b5b80604052505050565b7f4e487b7100000000000000000000000000000000000000000000000000000000600052602260045260246000fd5b7f4e487b7100000000000000000000000000000000000000000000000000000000600052604160045260246000fd5b6000601f19601f8301169050919050565b7f4552433732313a2063616c6c6572206973206e6f7420746f6b656e206f776e6560008201527f72206f7220617070726f76656400000000000000000000000000000000000000602082015250565b7f4552433732313a207472616e7366657220746f206e6f6e20455243373231526560008201527f63656976657220696d706c656d656e7465720000000000000000000000000000602082015250565b7f4f776e61626c653a206e6577206f776e657220697320746865207a65726f206160008201527f6464726573730000000000000000000000000000000000000000000000000000602082015250565b7f4552433732313a207472616e736665722066726f6d20696e636f72726563742060008201527f6f776e6572000000000000000000000000000000000000000000000000000000602082015250565b7f4552433732313a20746f6b656e20616c7265616479206d696e74656400000000600082015250565b7f4552433732313a207472616e7366657220746f20746865207a65726f2061646460008201527f7265737300000000000000000000000000000000000000000000000000000000602082015250565b7f4552433732313a20617070726f766520746f2063616c6c657200000000000000600082015250565b7f4552433732313a2061646472657373207a65726f206973206e6f74206120766160008201527f6c6964206f776e65720000000000000000000000000000000000000000000000602082015250565b7f45524337323155524953746f726167653a2055524920736574206f66206e6f6e60008201527f6578697374656e7420746f6b656e000000000000000000000000000000000000602082015250565b7f4552433732313a206d696e7420746f20746865207a65726f2061646472657373600082015250565b7f4f776e61626c653a2063616c6c6572206973206e6f7420746865206f776e6572600082015250565b7f4552433732313a20696e76616c696420746f6b656e2049440000000000000000600082015250565b7f4552433732313a20617070726f76616c20746f2063757272656e74206f776e6560008201527f7200000000000000000000000000000000000000000000000000000000000000602082015250565b7f4552433732313a20617070726f76652063616c6c6572206973206e6f7420746f60008201527f6b656e206f776e6572206f7220617070726f76656420666f7220616c6c000000602082015250565b612cb581612790565b8114612cc057600080fd5b50565b612ccc816127a2565b8114612cd757600080fd5b50565b612ce3816127ae565b8114612cee57600080fd5b50565b612cfa816127fa565b8114612d0557600080fd5b5056fea26469706673582212208cd15836529d96e6ec67ef22005c05aa0585557600d4576898406ed757a965a864736f6c63430008010033a264697066735822122016fd0e336ed7fee9abb6d43dd71c804663cc5c440dcff59e1c33dd4200d6b15364736f6c63430008010033",
  "linkReferences": {},
  "deployedLinkReferences": {}
}