{
  "_format": "hh-sol-artifact-1",
  "contractName": "RentalRightsToken",
  "sourceName": "contracts/RentalRightsToken.sol",
  "abi": [
    {
      "inputs": [],
      "stateMutability": "nonpayable",
      "type": "constructor"
    },
    {
      "anonymous": false,
      "inputs": [
        {
          "indexed": true,
          "internalType": "address",
          "name": "owner",
          "type": "address"
        },
        {
          "indexed": true,
          "internalType": "address",
          "name": "approved",
          "type": "address"
        },
        {
          "indexed": true,
          "internalType": "uint256",
          "name": "tokenId",
          "type": "uint256"
        }
      ],
      "name": "Approval",
      "type": "event"
    },
    {
      "anonymous": false,
      "inputs": [
        {
          "indexed": true,
          "internalType": "address",
          "name": "owner",
          "type": "address"
        },
        {
          "indexed": true,
          "internalType": "address",
          "name": "operator",
          "type": "address"
        },
        {
          "indexed": false,
          "internalType": "bool",
          "name": "approved",
          "type": "bool"
        }
      ],
      "name": "ApprovalForAll",
      "type": "event"
    },
    {
      "anonymous": false,
      "inputs": [
        {
          "indexed": true,
          "internalType": "address",
          "name": "previousOwner",
          "type": "address"
        },
        {
          "indexed": true,
          "internalType": "address",
          "name": "newOwner",
          "type": "address"
        }
      ],
      "name": "OwnershipTransferred",
      "type": "event"
    },
    {
      "anonymous": false,
      "inputs": [
        {
          "indexed": true,
          "internalType": "address",
          "name": "from",
          "type": "address"
        },
        {
          "indexed": true,
          "internalType": "address",
          "name": "to",
          "type": "address"
        },
        {
          "indexed": true,
          "internalType": "uint256",
          "name": "tokenId",
          "type": "uint256"
        }
      ],
      "name": "Transfer",
      "type": "event"
    },
    {
      "inputs": [
        {
          "internalType": "address",
          "name": "to",
          "type": "address"
        },
        {
          "internalType": "uint256",
          "name": "tokenId",
          "type": "uint256"
        }
      ],
      "name": "approve",
      "outputs": [],
      "stateMutability": "nonpayable",
      "type": "function"
    },
    {
      "inputs": [
        {
          "internalType": "address",
          "name": "owner",
          "type": "address"
        }
      ],
      "name": "balanceOf",
      "outputs": [
        {
          "internalType": "uint256",
          "name": "",
          "type": "uint256"
        }
      ],
      "stateMutability": "view",
      "type": "function"
    },
    {
      "inputs": [
        {
          "internalType": "uint256",
          "name": "tokenId",
          "type": "uint256"
        }
      ],
      "name": "getApproved",
      "outputs": [
        {
          "internalType": "address",
          "name": "",
          "type": "address"
        }
      ],
      "stateMutability": "view",
      "type": "function"
    },
    {
      "inputs": [
        {
          "internalType": "address",
          "name": "owner",
          "type": "address"
        },
        {
          "internalType": "address",
          "name": "operator",
          "type": "address"
        }
      ],
      "name": "isApprovedForAll",
      "outputs": [
        {
          "internalType": "bool",
          "name": "",
          "type": "bool"
        }
      ],
      "stateMutability": "view",
      "type": "function"
    },
    {
      "inputs": [
        {
          "internalType": "address",
          "name": "to",
          "type": "address"
        },
        {
          "internalType": "uint256",
          "name": "propertyId",
          "type": "uint256"
        },
        {
          "internalType": "string",
          "name": "tokenURI",
          "type": "string"
        },
        {
          "internalType": "uint256",
          "name": "duration",
          "type": "uint256"
        }
      ],
      "name": "mintRental",
      "outputs": [],
      "stateMutability": "nonpayable",
      "type": "function"
    },
    {
      "inputs": [],
      "name": "name",
      "outputs": [
        {
          "internalType": "string",
          "name": "",
          "type": "string"
        }
      ],
      "stateMutability": "view",
      "type": "function"
    },
    {
      "inputs": [],
      "name": "owner",
      "outputs": [
        {
          "internalType": "address",
          "name": "",
          "type": "address"
        }
      ],
      "stateMutability": "view",
      "type": "function"
    },
    {
      "inputs": [
        {
          "internalType": "uint256",
          "name": "tokenId",
          "type": "uint256"
        }
      ],
      "name": "ownerOf",
      "outputs": [
        {
          "internalType": "address",
          "name": "",
          "type": "address"
        }
      ],
      "stateMutability": "view",
      "type": "function"
    },
    {
      "inputs": [],
      "name": "renounceOwnership",
      "outputs": [],
      "stateMutability": "nonpayable",
      "type": "function"
    },
    {
      "inputs": [
        {
          "internalType": "uint256",
          "name": "",
          "type": "uint256"
        }
      ],
      "name": "rentalAgreements",
      "outputs": [
        {
          "internalType": "uint256",
          "name": "propertyId",
          "type": "uint256"
        },
        {
          "internalType": "uint256",
          "name": "rentalDuration",
          "type": "uint256"
        },
        {
          "internalType": "uint256",
          "name": "startTime",
          "type": "uint256"
        }
      ],
      "stateMutability": "view",
      "type": "function"
    },
    {
      "inputs": [
        {
          "internalType": "address",
          "name": "from",
          "type": "address"
        },
        {
          "internalType": "address",
          "name": "to",
          "type": "address"
        },
        {
          "internalType": "uint256",
          "name": "tokenId",
          "type": "uint256"
        }
      ],
      "name": "safeTransferFrom",
      "outputs": [],
      "stateMutability": "nonpayable",
      "type": "function"
    },
    {
      "inputs": [
        {
          "internalType": "address",
          "name": "from",
          "type": "address"
        },
        {
          "internalType": "address",
          "name": "to",
          "type": "address"
        },
        {
          "internalType": "uint256",
          "name": "tokenId",
          "type": "uint256"
        },
        {
          "internalType": "bytes",
          "name": "data",
          "type": "bytes"
        }
      ],
      "name": "safeTransferFrom",
      "outputs": [],
      "stateMutability": "nonpayable",
      "type": "function"
    },
    {
      "inputs": [
        {
          "internalType": "address",
          "name": "operator",
          "type": "address"
        },
        {
          "internalType": "bool",
          "name": "approved",
          "type": "bool"
        }
      ],
      "name": "setApprovalForAll",
      "outputs": [],
      "stateMutability": "nonpayable",
      "type": "function"
    },
    {
      "inputs": [
        {
          "internalType": "bytes4",
          "name": "interfaceId",
          "type": "bytes4"
        }
      ],
      "name": "supportsInterface",
      "outputs": [
        {
          "internalType": "bool",
          "name": "",
          "type": "bool"
        }
      ],
      "stateMutability": "view",
      "type": "function"
    },
    {
      "inputs": [],
      "name": "symbol",
      "outputs": [
        {
          "internalType": "string",
          "name": "",
          "type": "string"
        }
      ],
      "stateMutability": "view",
      "type": "function"
    },
    {
      "inputs": [
        {
          "internalType": "uint256",
          "name": "tokenId",
          "type": "uint256"
        }
      ],
      "name": "tokenURI",
      "outputs": [
        {
          "internalType": "string",
          "name": "",
          "type": "string"
        }
      ],
      "stateMutability": "view",
      "type": "function"
    },
    {
      "inputs": [
        {
          "internalType": "address",
          "name": "from",
          "type": "address"
        },
        {
          "internalType": "address",
          "name": "to",
          "type": "address"
        },
        {
          "internalType": "uint256",
          "name": "tokenId",
          "type": "uint256"
        }
      ],
      "name": "transferFrom",
      "outputs": [],
      "stateMutability": "nonpayable",
      "type": "function"
    },
    {
      "inputs": [
        {
          "internalType": "address",
          "name": "newOwner",
          "type": "address"
        }
      ],
      "name": "transferOwnership",
      "outputs": [],
      "stateMutability": "nonpayable",
      "type": "function"
    }
  ],
  "bytecode": "0x60806040523480156200001157600080fd5b506040518060400160405280601181526020017f52656e74616c526967687473546f6b656e0000000000000000000000000000008152506040518060400160405280600381526020017f5252540000000000000000000000000000000000000000000000000000000000815250816000908051906020019062000096929190620001a6565b508060019080519060200190620000af929190620001a6565b505050620000d2620000c6620000d860201b60201c565b620000e060201b60201c565b620002bb565b600033905090565b6000600760009054906101000a900473ffffffffffffffffffffffffffffffffffffffff16905081600760006101000a81548173ffffffffffffffffffffffffffffffffffffffff021916908373ffffffffffffffffffffffffffffffffffffffff1602179055508173ffffffffffffffffffffffffffffffffffffffff168173ffffffffffffffffffffffffffffffffffffffff167f8be0079c531659141344cd1fd0a4f28419497f9722a3daafe3b4186f6b6457e060405160405180910390a35050565b828054620001b49062000256565b90600052602060002090601f016020900481019282620001d8576000855562000224565b82601f10620001f357805160ff191683800117855562000224565b8280016001018555821562000224579182015b828111156200022357825182559160200191906001019062000206565b5b50905062000233919062000237565b5090565b5b808211156200025257600081600090555060010162000238565b5090565b600060028204905060018216806200026f57607f821691505b602082108114156200028657620002856200028c565b5b50919050565b7f4e487b7100000000000000000000000000000000000000000000000000000000600052602260045260246000fd5b612dbe80620002cb6000396000f3fe608060405234801561001057600080fd5b50600436106101165760003560e01c80638da5cb5b116100a2578063b88d4fde11610071578063b88d4fde146102e1578063c624bbbf146102fd578063c87b56dd14610319578063e985e9c514610349578063f2fde38b1461037957610116565b80638da5cb5b1461025757806395d89b4114610275578063a22cb46514610293578063ac06b0d8146102af57610116565b806323b872dd116100e957806323b872dd146101b557806342842e0e146101d15780636352211e146101ed57806370a082311461021d578063715018a61461024d57610116565b806301ffc9a71461011b57806306fdde031461014b578063081812fc14610169578063095ea7b314610199575b600080fd5b61013560048036038101906101309190612137565b610395565b60405161014291906124f7565b60405180910390f35b610153610477565b6040516101609190612512565b60405180910390f35b610183600480360381019061017e9190612189565b610509565b6040516101909190612490565b60405180910390f35b6101b360048036038101906101ae9190612080565b61054f565b005b6101cf60048036038101906101ca9190611f7a565b610667565b005b6101eb60048036038101906101e69190611f7a565b6106c7565b005b61020760048036038101906102029190612189565b6106e7565b6040516102149190612490565b60405180910390f35b61023760048036038101906102329190611f15565b61076e565b60405161024491906126f4565b60405180910390f35b610255610826565b005b61025f61083a565b60405161026c9190612490565b60405180910390f35b61027d610864565b60405161028a9190612512565b60405180910390f35b6102ad60048036038101906102a89190612044565b6108f6565b005b6102c960048036038101906102c49190612189565b61090c565b6040516102d89392919061270f565b60405180910390f35b6102fb60048036038101906102f69190611fc9565b610936565b005b610317600480360381019061031291906120bc565b610998565b005b610333600480360381019061032e9190612189565b610a28565b6040516103409190612512565b60405180910390f35b610363600480360381019061035e9190611f3e565b610b3b565b60405161037091906124f7565b60405180910390f35b610393600480360381019061038e9190611f15565b610bcf565b005b60007f80ac58cd000000000000000000000000000000000000000000000000000000007bffffffffffffffffffffffffffffffffffffffffffffffffffffffff1916827bffffffffffffffffffffffffffffffffffffffffffffffffffffffff1916148061046057507f5b5e139f000000000000000000000000000000000000000000000000000000007bffffffffffffffffffffffffffffffffffffffffffffffffffffffff1916827bffffffffffffffffffffffffffffffffffffffffffffffffffffffff1916145b80610470575061046f82610c53565b5b9050919050565b606060008054610486906128c6565b80601f01602080910402602001604051908101604052809291908181526020018280546104b2906128c6565b80156104ff5780601f106104d4576101008083540402835291602001916104ff565b820191906000526020600020905b8154815290600101906020018083116104e257829003601f168201915b5050505050905090565b600061051482610cbd565b6004600083815260200190815260200160002060009054906101000a900473ffffffffffffffffffffffffffffffffffffffff169050919050565b600061055a826106e7565b90508073ffffffffffffffffffffffffffffffffffffffff168373ffffffffffffffffffffffffffffffffffffffff1614156105cb576040517f08c379a00000000000000000000000000000000000000000000000000000000081526004016105c2906126b4565b60405180910390fd5b8073ffffffffffffffffffffffffffffffffffffffff166105ea610d08565b73ffffffffffffffffffffffffffffffffffffffff161480610619575061061881610613610d08565b610b3b565b5b610658576040517f08c379a000000000000000000000000000000000000000000000000000000000815260040161064f906126d4565b60405180910390fd5b6106628383610d10565b505050565b610678610672610d08565b82610dc9565b6106b7576040517f08c379a00000000000000000000000000000000000000000000000000000000081526004016106ae90612534565b60405180910390fd5b6106c2838383610e5e565b505050565b6106e283838360405180602001604052806000815250610936565b505050565b6000806106f383611158565b9050600073ffffffffffffffffffffffffffffffffffffffff168173ffffffffffffffffffffffffffffffffffffffff161415610765576040517f08c379a000000000000000000000000000000000000000000000000000000000815260040161075c90612694565b60405180910390fd5b80915050919050565b60008073ffffffffffffffffffffffffffffffffffffffff168273ffffffffffffffffffffffffffffffffffffffff1614156107df576040517f08c379a00000000000000000000000000000000000000000000000000000000081526004016107d690612614565b60405180910390fd5b600360008373ffffffffffffffffffffffffffffffffffffffff1673ffffffffffffffffffffffffffffffffffffffff168152602001908152602001600020549050919050565b61082e611195565b6108386000611213565b565b6000600760009054906101000a900473ffffffffffffffffffffffffffffffffffffffff16905090565b606060018054610873906128c6565b80601f016020809104026020016040519081016040528092919081815260200182805461089f906128c6565b80156108ec5780601f106108c1576101008083540402835291602001916108ec565b820191906000526020600020905b8154815290600101906020018083116108cf57829003601f168201915b5050505050905090565b610908610901610d08565b83836112d9565b5050565b60096020528060005260406000206000915090508060000154908060010154908060020154905083565b610947610941610d08565b83610dc9565b610986576040517f08c379a000000000000000000000000000000000000000000000000000000000815260040161097d90612534565b60405180910390fd5b61099284848484611446565b50505050565b6109a0611195565b6109aa60086114a2565b60006109b660086114b8565b90506109c285826114c6565b6109cc81846116e4565b600060405180606001604052808681526020018481526020014281525090508060096000848152602001908152602001600020600082015181600001556020820151816001015560408201518160020155905050505050505050565b6060610a3382610cbd565b6000600660008481526020019081526020016000208054610a53906128c6565b80601f0160208091040260200160405190810160405280929190818152602001828054610a7f906128c6565b8015610acc5780601f10610aa157610100808354040283529160200191610acc565b820191906000526020600020905b815481529060010190602001808311610aaf57829003601f168201915b505050505090506000610add611758565b9050600081511415610af3578192505050610b36565b600082511115610b28578082604051602001610b1092919061246c565b60405160208183030381529060405292505050610b36565b610b318461176f565b925050505b919050565b6000600560008473ffffffffffffffffffffffffffffffffffffffff1673ffffffffffffffffffffffffffffffffffffffff16815260200190815260200160002060008373ffffffffffffffffffffffffffffffffffffffff1673ffffffffffffffffffffffffffffffffffffffff16815260200190815260200160002060009054906101000a900460ff16905092915050565b610bd7611195565b600073ffffffffffffffffffffffffffffffffffffffff168173ffffffffffffffffffffffffffffffffffffffff161415610c47576040517f08c379a0000000000000000000000000000000000000000000000000000000008152600401610c3e90612574565b60405180910390fd5b610c5081611213565b50565b60007f01ffc9a7000000000000000000000000000000000000000000000000000000007bffffffffffffffffffffffffffffffffffffffffffffffffffffffff1916827bffffffffffffffffffffffffffffffffffffffffffffffffffffffff1916149050919050565b610cc6816117d7565b610d05576040517f08c379a0000000000000000000000000000000000000000000000000000000008152600401610cfc90612694565b60405180910390fd5b50565b600033905090565b816004600083815260200190815260200160002060006101000a81548173ffffffffffffffffffffffffffffffffffffffff021916908373ffffffffffffffffffffffffffffffffffffffff160217905550808273ffffffffffffffffffffffffffffffffffffffff16610d83836106e7565b73ffffffffffffffffffffffffffffffffffffffff167f8c5be1e5ebec7d5bd14f71427d1e84f3dd0314c0f7b2291e5b200ac8c7c3b92560405160405180910390a45050565b600080610dd5836106e7565b90508073ffffffffffffffffffffffffffffffffffffffff168473ffffffffffffffffffffffffffffffffffffffff161480610e175750610e168185610b3b565b5b80610e5557508373ffffffffffffffffffffffffffffffffffffffff16610e3d84610509565b73ffffffffffffffffffffffffffffffffffffffff16145b91505092915050565b8273ffffffffffffffffffffffffffffffffffffffff16610e7e826106e7565b73ffffffffffffffffffffffffffffffffffffffff1614610ed4576040517f08c379a0000000000000000000000000000000000000000000000000000000008152600401610ecb90612594565b60405180910390fd5b600073ffffffffffffffffffffffffffffffffffffffff168273ffffffffffffffffffffffffffffffffffffffff161415610f44576040517f08c379a0000000000000000000000000000000000000000000000000000000008152600401610f3b906125d4565b60405180910390fd5b610f518383836001611818565b8273ffffffffffffffffffffffffffffffffffffffff16610f71826106e7565b73ffffffffffffffffffffffffffffffffffffffff1614610fc7576040517f08c379a0000000000000000000000000000000000000000000000000000000008152600401610fbe90612594565b60405180910390fd5b6004600082815260200190815260200160002060006101000a81549073ffffffffffffffffffffffffffffffffffffffff02191690556001600360008573ffffffffffffffffffffffffffffffffffffffff1673ffffffffffffffffffffffffffffffffffffffff168152602001908152602001600020600082825403925050819055506001600360008473ffffffffffffffffffffffffffffffffffffffff1673ffffffffffffffffffffffffffffffffffffffff16815260200190815260200160002060008282540192505081905550816002600083815260200190815260200160002060006101000a81548173ffffffffffffffffffffffffffffffffffffffff021916908373ffffffffffffffffffffffffffffffffffffffff160217905550808273ffffffffffffffffffffffffffffffffffffffff168473ffffffffffffffffffffffffffffffffffffffff167fddf252ad1be2c89b69c2b068fc378daa952ba7f163c4a11628f55a4df523b3ef60405160405180910390a4611153838383600161181e565b505050565b60006002600083815260200190815260200160002060009054906101000a900473ffffffffffffffffffffffffffffffffffffffff169050919050565b61119d610d08565b73ffffffffffffffffffffffffffffffffffffffff166111bb61083a565b73ffffffffffffffffffffffffffffffffffffffff1614611211576040517f08c379a000000000000000000000000000000000000000000000000000000000815260040161120890612674565b60405180910390fd5b565b6000600760009054906101000a900473ffffffffffffffffffffffffffffffffffffffff16905081600760006101000a81548173ffffffffffffffffffffffffffffffffffffffff021916908373ffffffffffffffffffffffffffffffffffffffff1602179055508173ffffffffffffffffffffffffffffffffffffffff168173ffffffffffffffffffffffffffffffffffffffff167f8be0079c531659141344cd1fd0a4f28419497f9722a3daafe3b4186f6b6457e060405160405180910390a35050565b8173ffffffffffffffffffffffffffffffffffffffff168373ffffffffffffffffffffffffffffffffffffffff161415611348576040517f08c379a000000000000000000000000000000000000000000000000000000000815260040161133f906125f4565b60405180910390fd5b80600560008573ffffffffffffffffffffffffffffffffffffffff1673ffffffffffffffffffffffffffffffffffffffff16815260200190815260200160002060008473ffffffffffffffffffffffffffffffffffffffff1673ffffffffffffffffffffffffffffffffffffffff16815260200190815260200160002060006101000a81548160ff0219169083151502179055508173ffffffffffffffffffffffffffffffffffffffff168373ffffffffffffffffffffffffffffffffffffffff167f17307eab39ab6107e8899845ad3d59bd9653f200f220920489ca2b5937696c318360405161143991906124f7565b60405180910390a3505050565b611451848484610e5e565b61145d84848484611824565b61149c576040517f08c379a000000000000000000000000000000000000000000000000000000000815260040161149390612554565b60405180910390fd5b50505050565b6001816000016000828254019250508190555050565b600081600001549050919050565b600073ffffffffffffffffffffffffffffffffffffffff168273ffffffffffffffffffffffffffffffffffffffff161415611536576040517f08c379a000000000000000000000000000000000000000000000000000000000815260040161152d90612654565b60405180910390fd5b61153f816117d7565b1561157f576040517f08c379a0000000000000000000000000000000000000000000000000000000008152600401611576906125b4565b60405180910390fd5b61158d600083836001611818565b611596816117d7565b156115d6576040517f08c379a00000000000000000000000000000000000000000000000000000000081526004016115cd906125b4565b60405180910390fd5b6001600360008473ffffffffffffffffffffffffffffffffffffffff1673ffffffffffffffffffffffffffffffffffffffff16815260200190815260200160002060008282540192505081905550816002600083815260200190815260200160002060006101000a81548173ffffffffffffffffffffffffffffffffffffffff021916908373ffffffffffffffffffffffffffffffffffffffff160217905550808273ffffffffffffffffffffffffffffffffffffffff16600073ffffffffffffffffffffffffffffffffffffffff167fddf252ad1be2c89b69c2b068fc378daa952ba7f163c4a11628f55a4df523b3ef60405160405180910390a46116e060008383600161181e565b5050565b6116ed826117d7565b61172c576040517f08c379a000000000000000000000000000000000000000000000000000000000815260040161172390612634565b60405180910390fd5b80600660008481526020019081526020016000209080519060200190611753929190611d39565b505050565b606060405180602001604052806000815250905090565b606061177a82610cbd565b6000611784611758565b905060008151116117a457604051806020016040528060008152506117cf565b806117ae846119bb565b6040516020016117bf92919061246c565b6040516020818303038152906040525b915050919050565b60008073ffffffffffffffffffffffffffffffffffffffff166117f983611158565b73ffffffffffffffffffffffffffffffffffffffff1614159050919050565b50505050565b50505050565b60006118458473ffffffffffffffffffffffffffffffffffffffff16611adf565b156119ae578373ffffffffffffffffffffffffffffffffffffffff1663150b7a0261186e610d08565b8786866040518563ffffffff1660e01b815260040161189094939291906124ab565b602060405180830381600087803b1580156118aa57600080fd5b505af19250505080156118db57506040513d601f19601f820116820180604052508101906118d89190612160565b60015b61195e573d806000811461190b576040519150601f19603f3d011682016040523d82523d6000602084013e611910565b606091505b50600081511415611956576040517f08c379a000000000000000000000000000000000000000000000000000000000815260040161194d90612554565b60405180910390fd5b805181602001fd5b63150b7a0260e01b7bffffffffffffffffffffffffffffffffffffffffffffffffffffffff1916817bffffffffffffffffffffffffffffffffffffffffffffffffffffffff1916149150506119b3565b600190505b949350505050565b6060600060016119ca84611b02565b01905060008167ffffffffffffffff811115611a0f577f4e487b7100000000000000000000000000000000000000000000000000000000600052604160045260246000fd5b6040519080825280601f01601f191660200182016040528015611a415781602001600182028036833780820191505090505b509050600082602001820190505b600115611ad4578080600190039150507f3031323334353637383961626364656600000000000000000000000000000000600a86061a8153600a8581611abe577f4e487b7100000000000000000000000000000000000000000000000000000000600052601260045260246000fd5b0494506000851415611acf57611ad4565b611a4f565b819350505050919050565b6000808273ffffffffffffffffffffffffffffffffffffffff163b119050919050565b600080600090507a184f03e93ff9f4daa797ed6e38ed64bf6a1f0100000000000000008310611b86577a184f03e93ff9f4daa797ed6e38ed64bf6a1f0100000000000000008381611b7c577f4e487b7100000000000000000000000000000000000000000000000000000000600052601260045260246000fd5b0492506040810190505b6d04ee2d6d415b85acef81000000008310611be9576d04ee2d6d415b85acef81000000008381611bdf577f4e487b7100000000000000000000000000000000000000000000000000000000600052601260045260246000fd5b0492506020810190505b662386f26fc100008310611c3e57662386f26fc100008381611c34577f4e487b7100000000000000000000000000000000000000000000000000000000600052601260045260246000fd5b0492506010810190505b6305f5e1008310611c8d576305f5e1008381611c83577f4e487b7100000000000000000000000000000000000000000000000000000000600052601260045260246000fd5b0492506008810190505b6127108310611cd8576127108381611cce577f4e487b7100000000000000000000000000000000000000000000000000000000600052601260045260246000fd5b0492506004810190505b60648310611d215760648381611d17577f4e487b7100000000000000000000000000000000000000000000000000000000600052601260045260246000fd5b0492506002810190505b600a8310611d30576001810190505b80915050919050565b828054611d45906128c6565b90600052602060002090601f016020900481019282611d675760008555611dae565b82601f10611d8057805160ff1916838001178555611dae565b82800160010185558215611dae579182015b82811115611dad578251825591602001919060010190611d92565b5b509050611dbb9190611dbf565b5090565b5b80821115611dd8576000816000905550600101611dc0565b5090565b6000611def611dea8461276b565b612746565b905082815260208101848484011115611e0757600080fd5b611e12848285612884565b509392505050565b6000611e2d611e288461279c565b612746565b905082815260208101848484011115611e4557600080fd5b611e50848285612884565b509392505050565b600081359050611e6781612d2c565b92915050565b600081359050611e7c81612d43565b92915050565b600081359050611e9181612d5a565b92915050565b600081519050611ea681612d5a565b92915050565b600082601f830112611ebd57600080fd5b8135611ecd848260208601611ddc565b91505092915050565b600082601f830112611ee757600080fd5b8135611ef7848260208601611e1a565b91505092915050565b600081359050611f0f81612d71565b92915050565b600060208284031215611f2757600080fd5b6000611f3584828501611e58565b91505092915050565b60008060408385031215611f5157600080fd5b6000611f5f85828601611e58565b9250506020611f7085828601611e58565b9150509250929050565b600080600060608486031215611f8f57600080fd5b6000611f9d86828701611e58565b9350506020611fae86828701611e58565b9250506040611fbf86828701611f00565b9150509250925092565b60008060008060808587031215611fdf57600080fd5b6000611fed87828801611e58565b9450506020611ffe87828801611e58565b935050604061200f87828801611f00565b925050606085013567ffffffffffffffff81111561202c57600080fd5b61203887828801611eac565b91505092959194509250565b6000806040838503121561205757600080fd5b600061206585828601611e58565b925050602061207685828601611e6d565b9150509250929050565b6000806040838503121561209357600080fd5b60006120a185828601611e58565b92505060206120b285828601611f00565b9150509250929050565b600080600080608085870312156120d257600080fd5b60006120e087828801611e58565b94505060206120f187828801611f00565b935050604085013567ffffffffffffffff81111561210e57600080fd5b61211a87828801611ed6565b925050606061212b87828801611f00565b91505092959194509250565b60006020828403121561214957600080fd5b600061215784828501611e82565b91505092915050565b60006020828403121561217257600080fd5b600061218084828501611e97565b91505092915050565b60006020828403121561219b57600080fd5b60006121a984828501611f00565b91505092915050565b6121bb81612810565b82525050565b6121ca81612822565b82525050565b60006121db826127cd565b6121e581856127e3565b93506121f5818560208601612893565b6121fe81612987565b840191505092915050565b6000612214826127d8565b61221e81856127f4565b935061222e818560208601612893565b61223781612987565b840191505092915050565b600061224d826127d8565b6122578185612805565b9350612267818560208601612893565b80840191505092915050565b6000612280602d836127f4565b915061228b82612998565b604082019050919050565b60006122a36032836127f4565b91506122ae826129e7565b604082019050919050565b60006122c66026836127f4565b91506122d182612a36565b604082019050919050565b60006122e96025836127f4565b91506122f482612a85565b604082019050919050565b600061230c601c836127f4565b915061231782612ad4565b602082019050919050565b600061232f6024836127f4565b915061233a82612afd565b604082019050919050565b60006123526019836127f4565b915061235d82612b4c565b602082019050919050565b60006123756029836127f4565b915061238082612b75565b604082019050919050565b6000612398602e836127f4565b91506123a382612bc4565b604082019050919050565b60006123bb6020836127f4565b91506123c682612c13565b602082019050919050565b60006123de6020836127f4565b91506123e982612c3c565b602082019050919050565b60006124016018836127f4565b915061240c82612c65565b602082019050919050565b60006124246021836127f4565b915061242f82612c8e565b604082019050919050565b6000612447603d836127f4565b915061245282612cdd565b604082019050919050565b6124668161287a565b82525050565b60006124788285612242565b91506124848284612242565b91508190509392505050565b60006020820190506124a560008301846121b2565b92915050565b60006080820190506124c060008301876121b2565b6124cd60208301866121b2565b6124da604083018561245d565b81810360608301526124ec81846121d0565b905095945050505050565b600060208201905061250c60008301846121c1565b92915050565b6000602082019050818103600083015261252c8184612209565b905092915050565b6000602082019050818103600083015261254d81612273565b9050919050565b6000602082019050818103600083015261256d81612296565b9050919050565b6000602082019050818103600083015261258d816122b9565b9050919050565b600060208201905081810360008301526125ad816122dc565b9050919050565b600060208201905081810360008301526125cd816122ff565b9050919050565b600060208201905081810360008301526125ed81612322565b9050919050565b6000602082019050818103600083015261260d81612345565b9050919050565b6000602082019050818103600083015261262d81612368565b9050919050565b6000602082019050818103600083015261264d8161238b565b9050919050565b6000602082019050818103600083015261266d816123ae565b9050919050565b6000602082019050818103600083015261268d816123d1565b9050919050565b600060208201905081810360008301526126ad816123f4565b9050919050565b600060208201905081810360008301526126cd81612417565b9050919050565b600060208201905081810360008301526126ed8161243a565b9050919050565b6000602082019050612709600083018461245d565b92915050565b6000606082019050612724600083018661245d565b612731602083018561245d565b61273e604083018461245d565b949350505050565b6000612750612761565b905061275c82826128f8565b919050565b6000604051905090565b600067ffffffffffffffff82111561278657612785612958565b5b61278f82612987565b9050602081019050919050565b600067ffffffffffffffff8211156127b7576127b6612958565b5b6127c082612987565b9050602081019050919050565b600081519050919050565b600081519050919050565b600082825260208201905092915050565b600082825260208201905092915050565b600081905092915050565b600061281b8261285a565b9050919050565b60008115159050919050565b60007fffffffff0000000000000000000000000000000000000000000000000000000082169050919050565b600073ffffffffffffffffffffffffffffffffffffffff82169050919050565b6000819050919050565b82818337600083830152505050565b60005b838110156128b1578082015181840152602081019050612896565b838111156128c0576000848401525b50505050565b600060028204905060018216806128de57607f821691505b602082108114156128f2576128f1612929565b5b50919050565b61290182612987565b810181811067ffffffffffffffff821117156129205761291f612958565b5b80604052505050565b7f4e487b7100000000000000000000000000000000000000000000000000000000600052602260045260246000fd5b7f4e487b7100000000000000000000000000000000000000000000000000000000600052604160045260246000fd5b6000601f19601f8301169050919050565b7f4552433732313a2063616c6c6572206973206e6f7420746f6b656e206f776e6560008201527f72206f7220617070726f76656400000000000000000000000000000000000000602082015250565b7f4552433732313a207472616e7366657220746f206e6f6e20455243373231526560008201527f63656976657220696d706c656d656e7465720000000000000000000000000000602082015250565b7f4f776e61626c653a206e6577206f776e657220697320746865207a65726f206160008201527f6464726573730000000000000000000000000000000000000000000000000000602082015250565b7f4552433732313a207472616e736665722066726f6d20696e636f72726563742060008201527f6f776e6572000000000000000000000000000000000000000000000000000000602082015250565b7f4552433732313a20746f6b656e20616c7265616479206d696e74656400000000600082015250565b7f4552433732313a207472616e7366657220746f20746865207a65726f2061646460008201527f7265737300000000000000000000000000000000000000000000000000000000602082015250565b7f4552433732313a20617070726f766520746f2063616c6c657200000000000000600082015250565b7f4552433732313a2061646472657373207a65726f206973206e6f74206120766160008201527f6c6964206f776e65720000000000000000000000000000000000000000000000602082015250565b7f45524337323155524953746f726167653a2055524920736574206f66206e6f6e60008201527f6578697374656e7420746f6b656e000000000000000000000000000000000000602082015250565b7f4552433732313a206d696e7420746f20746865207a65726f2061646472657373600082015250565b7f4f776e61626c653a2063616c6c6572206973206e6f7420746865206f776e6572600082015250565b7f4552433732313a20696e76616c696420746f6b656e2049440000000000000000600082015250565b7f4552433732313a20617070726f76616c20746f2063757272656e74206f776e6560008201527f7200000000000000000000000000000000000000000000000000000000000000602082015250565b7f4552433732313a20617070726f76652063616c6c6572206973206e6f7420746f60008201527f6b656e206f776e6572206f7220617070726f76656420666f7220616c6c000000602082015250565b612d3581612810565b8114612d4057600080fd5b50565b612d4c81612822565b8114612d5757600080fd5b50565b612d638161282e565b8114612d6e57600080fd5b50565b612d7a8161287a565b8114612d8557600080fd5b5056fea2646970667358221220700bc8dd6cc00340d08c7d38c5d17e8f1a99f526e8a144892d05b4b1bd5fab0e64736f6c63430008010033",
  "linkReferences": {},
  "deployedLinkReferences": {}
}