{
  "_format": "hh-sol-artifact-1",
  "contractName": "RentContract",
  "sourceName": "contracts/RentContract.sol",
  "abi": [
    {
      "inputs": [
        {
          "internalType": "uint256",
          "name": "_pricePerMonth",
          "type": "uint256"
        },
        {
          "internalType": "uint256",
          "name": "_collateral",
          "type": "uint256"
        }
      ],
      "name": "addProperty",
      "outputs": [],
      "stateMutability": "nonpayable",
      "type": "function"
    },
    {
      "inputs": [
        {
          "internalType": "uint256",
          "name": "_propertyIndex",
          "type": "uint256"
        }
      ],
      "name": "expressInterest",
      "outputs": [],
      "stateMutability": "payable",
      "type": "function"
    },
    {
      "inputs": [
        {
          "internalType": "address",
          "name": "_landlord",
          "type": "address"
        }
      ],
      "name": "getNumberOfProperties",
      "outputs": [
        {
          "internalType": "uint256",
          "name": "",
          "type": "uint256"
        }
      ],
      "stateMutability": "view",
      "type": "function"
    },
    {
      "inputs": [
        {
          "internalType": "uint256",
          "name": "_propertyIndex",
          "type": "uint256"
        }
      ],
      "name": "payRent",
      "outputs": [],
      "stateMutability": "payable",
      "type": "function"
    },
    {
      "inputs": [
        {
          "internalType": "address",
          "name": "",
          "type": "address"
        },
        {
          "internalType": "uint256",
          "name": "",
          "type": "uint256"
        }
      ],
      "name": "properties",
      "outputs": [
        {
          "internalType": "address",
          "name": "landlord",
          "type": "address"
        },
        {
          "internalType": "uint256",
          "name": "pricePerMonth",
          "type": "uint256"
        },
        {
          "internalType": "uint256",
          "name": "collateral",
          "type": "uint256"
        },
        {
          "internalType": "bool",
          "name": "isAvailable",
          "type": "bool"
        },
        {
          "internalType": "address",
          "name": "currentTenant",
          "type": "address"
        },
        {
          "internalType": "uint256",
          "name": "lastPaidMonth",
          "type": "uint256"
        }
      ],
      "stateMutability": "view",
      "type": "function"
    },
    {
      "inputs": [
        {
          "internalType": "uint256",
          "name": "_index",
          "type": "uint256"
        }
      ],
      "name": "removeProperty",
      "outputs": [],
      "stateMutability": "nonpayable",
      "type": "function"
    },
    {
      "inputs": [
        {
          "internalType": "uint256",
          "name": "_propertyIndex",
          "type": "uint256"
        },
        {
          "internalType": "address",
          "name": "_tenant",
          "type": "address"
        }
      ],
      "name": "selectTenant",
      "outputs": [],
      "stateMutability": "nonpayable",
      "type": "function"
    },
    {
      "inputs": [
        {
          "internalType": "address",
          "name": "",
          "type": "address"
        }
      ],
      "name": "tenantCollateral",
      "outputs": [
        {
          "internalType": "uint256",
          "name": "",
          "type": "uint256"
        }
      ],
      "stateMutability": "view",
      "type": "function"
    },
    {
      "inputs": [],
      "name": "withdrawCollateral",
      "outputs": [],
      "stateMutability": "nonpayable",
      "type": "function"
    }
  ],
  "bytecode": "0x608060405234801561001057600080fd5b5061234c806100206000396000f3fe6080604052600436106100855760003560e01c806357e3868f1161005957806357e3868f1461015b57806359c153be14610198578063bc43d06f146101af578063d9e8843f146101d8578063f796c724146101f457610085565b80627a359d1461008a57806303b66f63146100b357806314bfcdd7146100dc578063335d889b1461011e575b600080fd5b34801561009657600080fd5b506100b160048036038101906100ac9190611a5c565b610210565b005b3480156100bf57600080fd5b506100da60048036038101906100d59190611a98565b61057c565b005b3480156100e857600080fd5b5061010360048036038101906100fe91906119f7565b61086c565b60405161011596959493929190611f71565b60405180910390f35b34801561012a57600080fd5b50610145600480360381019061014091906119ce565b610912565b6040516101529190612172565b60405180910390f35b34801561016757600080fd5b50610182600480360381019061017d91906119ce565b61095d565b60405161018f9190612172565b60405180910390f35b3480156101a457600080fd5b506101ad610975565b005b3480156101bb57600080fd5b506101d660048036038101906101d19190611a33565b610a8b565b005b6101f260048036038101906101ed9190611a33565b610fcc565b005b61020e60048036038101906102099190611a33565b611341565b005b6000803373ffffffffffffffffffffffffffffffffffffffff1673ffffffffffffffffffffffffffffffffffffffff1681526020019081526020016000208281548110610286577f4e487b7100000000000000000000000000000000000000000000000000000000600052603260045260246000fd5b906000526020600020906006020160000160009054906101000a900473ffffffffffffffffffffffffffffffffffffffff1673ffffffffffffffffffffffffffffffffffffffff163373ffffffffffffffffffffffffffffffffffffffff1614610325576040517f08c379a000000000000000000000000000000000000000000000000000000000815260040161031c90612032565b60405180910390fd5b60008060003373ffffffffffffffffffffffffffffffffffffffff1673ffffffffffffffffffffffffffffffffffffffff168152602001908152602001600020838154811061039d577f4e487b7100000000000000000000000000000000000000000000000000000000600052603260045260246000fd5b906000526020600020906006020190508060040160009054906101000a900460ff166103fe576040517f08c379a00000000000000000000000000000000000000000000000000000000081526004016103f590612092565b60405180910390fd5b6000816001018054905011610448576040517f08c379a000000000000000000000000000000000000000000000000000000000815260040161043f90611ff2565b60405180910390fd5b60005b8160010180549050811015610576578273ffffffffffffffffffffffffffffffffffffffff168260010182815481106104ad577f4e487b7100000000000000000000000000000000000000000000000000000000600052603260045260246000fd5b9060005260206000200160009054906101000a900473ffffffffffffffffffffffffffffffffffffffff1673ffffffffffffffffffffffffffffffffffffffff16141561056357828260040160016101000a81548173ffffffffffffffffffffffffffffffffffffffff021916908373ffffffffffffffffffffffffffffffffffffffff16021790555060008260040160006101000a81548160ff02191690831515021790555060008260050181905550610576565b808061056e90612270565b91505061044b565b50505050565b600082116105bf576040517f08c379a00000000000000000000000000000000000000000000000000000000081526004016105b6906120d2565b60405180910390fd5b60008060003373ffffffffffffffffffffffffffffffffffffffff1673ffffffffffffffffffffffffffffffffffffffff1681526020019081526020016000208054905014610643576040517f08c379a000000000000000000000000000000000000000000000000000000000815260040161063a90612012565b60405180910390fd5b6000803373ffffffffffffffffffffffffffffffffffffffff1673ffffffffffffffffffffffffffffffffffffffff1681526020019081526020016000206040518060e001604052803373ffffffffffffffffffffffffffffffffffffffff168152602001600067ffffffffffffffff8111156106e9577f4e487b7100000000000000000000000000000000000000000000000000000000600052604160045260246000fd5b6040519080825280602002602001820160405280156107175781602001602082028036833780820191505090505b508152602001848152602001838152602001600115158152602001600073ffffffffffffffffffffffffffffffffffffffff1681526020016000815250908060018154018082558091505060019003906000526020600020906006020160009091909190915060008201518160000160006101000a81548173ffffffffffffffffffffffffffffffffffffffff021916908373ffffffffffffffffffffffffffffffffffffffff16021790555060208201518160010190805190602001906107e092919061188a565b50604082015181600201556060820151816003015560808201518160040160006101000a81548160ff02191690831515021790555060a08201518160040160016101000a81548173ffffffffffffffffffffffffffffffffffffffff021916908373ffffffffffffffffffffffffffffffffffffffff16021790555060c0820151816005015550505050565b6000602052816000526040600020818154811061088857600080fd5b9060005260206000209060060201600091509150508060000160009054906101000a900473ffffffffffffffffffffffffffffffffffffffff16908060020154908060030154908060040160009054906101000a900460ff16908060040160019054906101000a900473ffffffffffffffffffffffffffffffffffffffff16908060050154905086565b60008060008373ffffffffffffffffffffffffffffffffffffffff1673ffffffffffffffffffffffffffffffffffffffff168152602001908152602001600020805490509050919050565b60016020528060005260406000206000915090505481565b6000600160003373ffffffffffffffffffffffffffffffffffffffff1673ffffffffffffffffffffffffffffffffffffffff168152602001908152602001600020549050600081116109fc576040517f08c379a00000000000000000000000000000000000000000000000000000000081526004016109f390611fd2565b60405180910390fd5b6000600160003373ffffffffffffffffffffffffffffffffffffffff1673ffffffffffffffffffffffffffffffffffffffff168152602001908152602001600020819055503373ffffffffffffffffffffffffffffffffffffffff166108fc829081150290604051600060405180830381858888f19350505050158015610a87573d6000803e3d6000fd5b5050565b6000803373ffffffffffffffffffffffffffffffffffffffff1673ffffffffffffffffffffffffffffffffffffffff168152602001908152602001600020805490508110610b0e576040517f08c379a0000000000000000000000000000000000000000000000000000000008152600401610b05906120f2565b60405180910390fd5b600073ffffffffffffffffffffffffffffffffffffffff166000803373ffffffffffffffffffffffffffffffffffffffff1673ffffffffffffffffffffffffffffffffffffffff1681526020019081526020016000208281548110610b9c577f4e487b7100000000000000000000000000000000000000000000000000000000600052603260045260246000fd5b906000526020600020906006020160040160019054906101000a900473ffffffffffffffffffffffffffffffffffffffff1673ffffffffffffffffffffffffffffffffffffffff1614610c24576040517f08c379a0000000000000000000000000000000000000000000000000000000008152600401610c1b90612112565b60405180910390fd5b600060016000803373ffffffffffffffffffffffffffffffffffffffff1673ffffffffffffffffffffffffffffffffffffffff16815260200190815260200160002080549050610c7491906121f4565b90506000803373ffffffffffffffffffffffffffffffffffffffff1673ffffffffffffffffffffffffffffffffffffffff1681526020019081526020016000208181548110610cec577f4e487b7100000000000000000000000000000000000000000000000000000000600052603260045260246000fd5b90600052602060002090600602016000803373ffffffffffffffffffffffffffffffffffffffff1673ffffffffffffffffffffffffffffffffffffffff1681526020019081526020016000208381548110610d70577f4e487b7100000000000000000000000000000000000000000000000000000000600052603260045260246000fd5b90600052602060002090600602016000820160009054906101000a900473ffffffffffffffffffffffffffffffffffffffff168160000160006101000a81548173ffffffffffffffffffffffffffffffffffffffff021916908373ffffffffffffffffffffffffffffffffffffffff1602179055506001820181600101908054610dfb929190611914565b5060028201548160020155600382015481600301556004820160009054906101000a900460ff168160040160006101000a81548160ff0219169083151502179055506004820160019054906101000a900473ffffffffffffffffffffffffffffffffffffffff168160040160016101000a81548173ffffffffffffffffffffffffffffffffffffffff021916908373ffffffffffffffffffffffffffffffffffffffff160217905550600582015481600501559050506000803373ffffffffffffffffffffffffffffffffffffffff1673ffffffffffffffffffffffffffffffffffffffff168152602001908152602001600020805480610f25577f4e487b7100000000000000000000000000000000000000000000000000000000600052603160045260246000fd5b6001900381819060005260206000209060060201600080820160006101000a81549073ffffffffffffffffffffffffffffffffffffffff0219169055600182016000610f719190611966565b600282016000905560038201600090556004820160006101000a81549060ff02191690556004820160016101000a81549073ffffffffffffffffffffffffffffffffffffffff02191690556005820160009055505090555050565b3373ffffffffffffffffffffffffffffffffffffffff166000803373ffffffffffffffffffffffffffffffffffffffff1673ffffffffffffffffffffffffffffffffffffffff1681526020019081526020016000208281548110611059577f4e487b7100000000000000000000000000000000000000000000000000000000600052603260045260246000fd5b906000526020600020906006020160040160019054906101000a900473ffffffffffffffffffffffffffffffffffffffff1673ffffffffffffffffffffffffffffffffffffffff16146110e1576040517f08c379a00000000000000000000000000000000000000000000000000000000081526004016110d890612052565b60405180910390fd5b60008060008060003373ffffffffffffffffffffffffffffffffffffffff1673ffffffffffffffffffffffffffffffffffffffff168152602001908152602001600020848154811061115c577f4e487b7100000000000000000000000000000000000000000000000000000000600052603260045260246000fd5b906000526020600020906006020160000160009054906101000a900473ffffffffffffffffffffffffffffffffffffffff1673ffffffffffffffffffffffffffffffffffffffff1673ffffffffffffffffffffffffffffffffffffffff1681526020019081526020016000208281548110611200577f4e487b7100000000000000000000000000000000000000000000000000000000600052603260045260246000fd5b9060005260206000209060060201905080600201543414611256576040517f08c379a000000000000000000000000000000000000000000000000000000000815260040161124d90612072565b60405180910390fd5b61125f8261172d565b61129e576040517f08c379a000000000000000000000000000000000000000000000000000000000815260040161129590612132565b60405180910390fd5b8060050160008154809291906112b390612270565b919050555080600201543373ffffffffffffffffffffffffffffffffffffffff1631101561133d5760018160040160006101000a81548160ff02191690831515021790555060008160040160016101000a81548173ffffffffffffffffffffffffffffffffffffffff021916908373ffffffffffffffffffffffffffffffffffffffff1602179055505b5050565b6000803373ffffffffffffffffffffffffffffffffffffffff1673ffffffffffffffffffffffffffffffffffffffff1681526020019081526020016000208054905081106113c4576040517f08c379a00000000000000000000000000000000000000000000000000000000081526004016113bb906120b2565b60405180910390fd5b60008060008060003373ffffffffffffffffffffffffffffffffffffffff1673ffffffffffffffffffffffffffffffffffffffff168152602001908152602001600020848154811061143f577f4e487b7100000000000000000000000000000000000000000000000000000000600052603260045260246000fd5b906000526020600020906006020160000160009054906101000a900473ffffffffffffffffffffffffffffffffffffffff1673ffffffffffffffffffffffffffffffffffffffff1673ffffffffffffffffffffffffffffffffffffffff16815260200190815260200160002082815481106114e3577f4e487b7100000000000000000000000000000000000000000000000000000000600052603260045260246000fd5b906000526020600020906006020190508060040160009054906101000a900460ff16611544576040517f08c379a000000000000000000000000000000000000000000000000000000000815260040161153b90612092565b60405180910390fd5b60018160030154611555919061219e565b341015611597576040517f08c379a000000000000000000000000000000000000000000000000000000000815260040161158e90612152565b60405180910390fd5b60006001905060005b8260010180549050811015611665573373ffffffffffffffffffffffffffffffffffffffff16836001018281548110611602577f4e487b7100000000000000000000000000000000000000000000000000000000600052603260045260246000fd5b9060005260206000200160009054906101000a900473ffffffffffffffffffffffffffffffffffffffff1673ffffffffffffffffffffffffffffffffffffffff1614156116525760009150611665565b808061165d90612270565b9150506115a0565b5080156116d25781600101339080600181540180825580915050600190039060005260206000200160009091909190916101000a81548173ffffffffffffffffffffffffffffffffffffffff021916908373ffffffffffffffffffffffffffffffffffffffff1602179055505b34600160003373ffffffffffffffffffffffffffffffffffffffff1673ffffffffffffffffffffffffffffffffffffffff1681526020019081526020016000206000828254611721919061219e565b92505081905550505050565b6000806000808060003373ffffffffffffffffffffffffffffffffffffffff1673ffffffffffffffffffffffffffffffffffffffff16815260200190815260200160002085815481106117a9577f4e487b7100000000000000000000000000000000000000000000000000000000600052603260045260246000fd5b906000526020600020906006020160000160009054906101000a900473ffffffffffffffffffffffffffffffffffffffff1673ffffffffffffffffffffffffffffffffffffffff1673ffffffffffffffffffffffffffffffffffffffff168152602001908152602001600020838154811061184d577f4e487b7100000000000000000000000000000000000000000000000000000000600052603260045260246000fd5b90600052602060002090600602019050426002826005015461186f919061219e565b101561187f576000915050611885565b60019150505b919050565b828054828255906000526020600020908101928215611903579160200282015b828111156119025782518260006101000a81548173ffffffffffffffffffffffffffffffffffffffff021916908373ffffffffffffffffffffffffffffffffffffffff160217905550916020019190600101906118aa565b5b5090506119109190611987565b5090565b8280548282559060005260206000209081019282156119555760005260206000209182015b82811115611954578254825591600101919060010190611939565b5b5090506119629190611987565b5090565b50805460008255906000526020600020908101906119849190611987565b50565b5b808211156119a0576000816000905550600101611988565b5090565b6000813590506119b3816122e8565b92915050565b6000813590506119c8816122ff565b92915050565b6000602082840312156119e057600080fd5b60006119ee848285016119a4565b91505092915050565b60008060408385031215611a0a57600080fd5b6000611a18858286016119a4565b9250506020611a29858286016119b9565b9150509250929050565b600060208284031215611a4557600080fd5b6000611a53848285016119b9565b91505092915050565b60008060408385031215611a6f57600080fd5b6000611a7d858286016119b9565b9250506020611a8e858286016119a4565b9150509250929050565b60008060408385031215611aab57600080fd5b6000611ab9858286016119b9565b9250506020611aca858286016119b9565b9150509250929050565b611add81612228565b82525050565b611aec8161223a565b82525050565b6000611aff60208361218d565b91507f4e6f206c6f636b656420636f6c6c61746572616c20746f2077697468647261776000830152602082019050919050565b6000611b3f60148361218d565b91507f4e6f20706f74656e7469616c2074656e616e74730000000000000000000000006000830152602082019050919050565b6000611b7f60228361218d565b91507f596f7520616c7265616479206861766520612070726f7065727479206c69737460008301527f65640000000000000000000000000000000000000000000000000000000000006020830152604082019050919050565b6000611be5601d8361218d565b91507f596f75277265206e6f74207468652070726f7065727479206f776e65720000006000830152602082019050919050565b6000611c25602f8361218d565b91507f596f7520617265206e6f74207468652063757272656e742074656e616e74206f60008301527f6620746869732070726f706572747900000000000000000000000000000000006020830152604082019050919050565b6000611c8b602c8361218d565b91507f53656e7420616d6f756e74206973206e6f7420657175616c20746f207468652060008301527f6d6f6e74686c792072656e7400000000000000000000000000000000000000006020830152604082019050919050565b6000611cf160228361218d565b91507f50726f7065727479206973206e6f7420617661696c61626c6520666f7220726560008301527f6e740000000000000000000000000000000000000000000000000000000000006020830152604082019050919050565b6000611d5760178361218d565b91507f50726f706572747920646f6573206e6f742065786973740000000000000000006000830152602082019050919050565b6000611d9760288361218d565b91507f507269636520706572206d6f6e74682073686f756c642062652067726561746560008301527f72207468616e20300000000000000000000000000000000000000000000000006020830152604082019050919050565b6000611dfd60128361218d565b91507f496e646578206f7574206f662072616e676500000000000000000000000000006000830152602082019050919050565b6000611e3d602e8361218d565b91507f43616e6e6f742072656d6f766520612070726f7065727479207769746820612060008301527f63757272656e742074656e616e740000000000000000000000000000000000006020830152604082019050919050565b6000611ea360268361218d565b91507f52656e74616c20646561646c696e65207061737365642c20636f6e747261637460008301527f20656e64656400000000000000000000000000000000000000000000000000006020830152604082019050919050565b6000611f09603d8361218d565b91507f436f6c6c61746572616c2073686f756c6420626520736c696768746c79206c6160008301527f72676572207468616e2074686520726571756972656420616d6f756e740000006020830152604082019050919050565b611f6b81612266565b82525050565b600060c082019050611f866000830189611ad4565b611f936020830188611f62565b611fa06040830187611f62565b611fad6060830186611ae3565b611fba6080830185611ad4565b611fc760a0830184611f62565b979650505050505050565b60006020820190508181036000830152611feb81611af2565b9050919050565b6000602082019050818103600083015261200b81611b32565b9050919050565b6000602082019050818103600083015261202b81611b72565b9050919050565b6000602082019050818103600083015261204b81611bd8565b9050919050565b6000602082019050818103600083015261206b81611c18565b9050919050565b6000602082019050818103600083015261208b81611c7e565b9050919050565b600060208201905081810360008301526120ab81611ce4565b9050919050565b600060208201905081810360008301526120cb81611d4a565b9050919050565b600060208201905081810360008301526120eb81611d8a565b9050919050565b6000602082019050818103600083015261210b81611df0565b9050919050565b6000602082019050818103600083015261212b81611e30565b9050919050565b6000602082019050818103600083015261214b81611e96565b9050919050565b6000602082019050818103600083015261216b81611efc565b9050919050565b60006020820190506121876000830184611f62565b92915050565b600082825260208201905092915050565b60006121a982612266565b91506121b483612266565b9250827fffffffffffffffffffffffffffffffffffffffffffffffffffffffffffffffff038211156121e9576121e86122b9565b5b828201905092915050565b60006121ff82612266565b915061220a83612266565b92508282101561221d5761221c6122b9565b5b828203905092915050565b600061223382612246565b9050919050565b60008115159050919050565b600073ffffffffffffffffffffffffffffffffffffffff82169050919050565b6000819050919050565b600061227b82612266565b91507fffffffffffffffffffffffffffffffffffffffffffffffffffffffffffffffff8214156122ae576122ad6122b9565b5b600182019050919050565b7f4e487b7100000000000000000000000000000000000000000000000000000000600052601160045260246000fd5b6122f181612228565b81146122fc57600080fd5b50565b61230881612266565b811461231357600080fd5b5056fea2646970667358221220a2c6fbb26a6276b3830812d5d84bd40a2ad0ba424be6ed4db22b23f2433d056664736f6c63430008000033",
  "linkReferences": {},
  "deployedLinkReferences": {}
}